:020000040800F2
:1000000000500020CD19000821190008231900080C
:100010002519000827190008291900080000000008
:100020000000000000000000000000002B19000884
:100030002D190008000000002F19000831190008D0
:10004000151A0008151A0008151A0008151A0008D4
:10005000151A0008151A0008151A0008151A0008C4
:10006000151A0008151A0008151A0008151A0008B4
:10007000151A0008151A0008151A0008151A0008A4
:10008000151A0008151A0008151A0008151A000894
:10009000151A0008151A0008151A0008151A000884
:1000A000151A0008151A0008151A0008151A000874
:1000B000151A0008151A0008151A0008151A000864
:1000C000151A0008151A0008151A0008151A000854
:1000D000151A0008151A0008151A0008151A000844
:1000E00039190008151A0008151A00080000000048
:1000F0000000000000000000000000000000000000
:0C01000000000000000000005FF808F1A3
:10010C0010B5054C237833B9044B13B10448AFF345
:10011C0000800123237010BD70000020000000003F
:10012C00A022000808B5034B1BB103490348AFF3E9
:10013C00008008BD0000000074000020A022000810
:10014C00034613F8012B002AFBD1181A013870470B
:10015C0010B504460E4B18784FF47A73B3FBF0F3DA
:10016C000C4A1068B0FBF3F000F05CFB68B90F2C84
:10017C0001D901200AE0002221464FF0FF3000F0A7
:10018C0011FB034B5C60002000E0012010BD00BFA0
:10019C00000000200800002008B5074A136843F04F
:1001AC0010031360032000F0EBFA0020FFF7D0FFE0
:1001BC0001F02EFB002008BD00200240034A11680C
:1001CC00034B1B780B441360704700BF9C0000204E
:1001DC0000000020014B1868704700BF9C000020F5
:1001EC0038B50446FFF7F6FF0546B4F1FF3F02D0E1
:1001FC00044B1B781C44FFF7EDFF401BA042FAD3C5
:10020C0038BD00BF00000020F0B583B005460C4699
:10021C0000230193FFF7DEFF2B689A6812F4807FAE
:10022C0023D106465A6812F4807F03D1DB6A13F49B
:10023C00700F24D04B4B1F68022000F0C3FFB7FB9C
:10024C00F0F02B681969484A11422FD1D96802F194
:10025C005C4211422AD11969444A114239D1DA68F7
:10026C00434B1A4237D029273AE0AB6A43F02003BC
:10027C00AB62002385F82430012003B0F0BD2B685D
:10028C001B6813F0020F48D1B4F1FF3FF7D024B133
:10029C00FFF7A0FF801BA042F1D9AB6A43F0040327
:1002AC00AB62002385F824300320E6E719692F4A56
:1002BC00114204D1D96802F16E4211420DD0196974
:1002CC002C4A0A405AB9DA682A4B13405BB1FC2716
:1002DC0006E0292704E0142702E0542700E0FC275D
:1002EC0007FB00F704E05427FAE7019B0133019365
:1002FC00019BBB4211D2B4F1FF3FF6D024B1FFF702
:10030C0069FF801BA042F0D9AB6A43F00403AB62D7
:10031C00002385F824300320AFE72B686FF012021E
:10032C001A60AB6A43F40073AB622B689B6803F4EE
:10033C006023B3F5602F01D000209EE7EB686BB90A
:10034C00AB6A23F48073AB62AB6A13F4805F07D1A2
:10035C00AB6A43F00103AB6200208EE700208CE710
:10036C0000208AE708000020244992249224491294
:10037C0092244900499224000368D86C704700000D
:10038C0030B482B00023019390F82430012B00F09C
:10039C008B800246012380F824304B68062B29D829
:1003AC000568686B03EB8303053B1F249C4020EA24
:1003BC0004000C6804FA03F303436B630B68092B0A
:1003CC0038D91568E86803EB43031E3B07249C40AF
:1003DC0020EA04008C6804FA03F30343EB600B6817
:1003EC00103B012B34D90020002382F8243002B0BA
:1003FC0030BC70470C2B0ED80568286B03EB8303BD
:10040C00233B1F249C4020EA04000C6804FA03F3ED
:10041C0003432B63D2E70568E86A03EB8303413B94
:10042C001F249C4020EA04000C6804FA03F30343E5
:10043C00EB62C3E71568286903EB430307249C4070
:10044C0020EA04008C6804FA03F303432B61C6E72B
:10045C0013681648834205D0936A43F020039362D5
:10046C000120C1E7986810F4000F1BD1986840F484
:10047C00000098600B68102B01D00020B4E70C4BE7
:10048C001B680C49A1FB03139B0C03EB8303590062
:10049C00019102E0019B013B0193019B002BF9D1DF
:1004AC000020A1E700209FE70220A0E700240140E4
:1004BC000800002083DE1B4330B583B0002301937A
:1004CC0003689A6812F0010F2ED19A6842F001026B
:1004DC009A60174B1B68174AA2FB03239B0C0193D2
:1004EC0002E0019B013B0193019B002BF9D10446D7
:1004FC00FFF770FE054623689B6813F0010F11D1BE
:10050C00FFF768FE401B0228F5D9A36A43F01003DD
:10051C00A362E36A43F00103E362002384F824300E
:10052C00012002E0002000E0002003B030BD00BF3D
:10053C000800002083DE1B4390F82430012B6AD086
:10054C0010B50446012380F82430FFF7B5FF0246AE
:10055C0000285BD1A36A23F4407323F0010343F416
:10056C008073A36223682D498B4227D0A16A21F4A2
:10057C008011A162596811F4806F05D0A16A21F431
:10058C00405141F48051A162A16A11F4805F2BD0DB
:10059C00E16A21F00601E162002184F824106FF079
:1005AC00020119602368996801F46021B1F5602F8C
:1005BC001DD0996841F4801199602AE0A1F5806101
:1005CC00496811F4702FD1D0A16A41F48011A16255
:1005DC001349496811F4806FD6D0A16A21F44051B7
:1005EC0041F48051A162CFE70021E162D4E70B49CD
:1005FC008B4204D0996841F4A001996009E0A1F5FF
:10060C008061496811F4702FD3D1F3E7002384F88B
:10061C002430104610BD02221046704700280140BD
:10062C000024014038B503689A6812F0010F01D11B
:10063C00002038BD04469A6822F001029A60FFF748
:10064C00C9FD054623689B6813F0010F0ED0FFF718
:10065C00C1FD401B0228F5D9A36A43F01003A36225
:10066C00E36A43F00103E3620120E2E70020E0E7E4
:10067C0000287FD038B50446836A002B33D020463F
:10068C00FFF7D0FFA36A13F010036DD100286BD1D4
:10069C00A26A22F4885222F0020242F00202A26202
:1006AC006268E1690A43E56842EA4502A168B1F56E
:1006BC00807F21D001291CD0616901291FD02568B8
:1006CC00696821F469410B436B6021688D682A4B82
:1006DC002B4013438B60A368B3F5807F20D0012B94
:1006EC001ED000211FE0C36280F8243001F0B2F864
:1006FC00C5E74FF48073DFE74FF48073DCE735B95F
:10070C00A169013943EA413343F40063D7E7A16A95
:10071C0041F02001A162E16A41F00101E162CEE702
:10072C002369013B19052568EB6A23F470030B431D
:10073C00EB6223689968114B0B409A420BD0A36A69
:10074C0023F0120343F01003A362E36A43F00103A6
:10075C00E36201200DE00023E362A36A23F00303AC
:10076C0043F00103A36204E0A36A43F01003A36205
:10077C00012038BD01207047FDF7E1FFFE0E1FFF81
:10078C00074AD36823F4E0631B041B0C000200F43B
:10079C00E060184340F0BF6040F40030D060704718
:1007AC0000ED00E030B4174BDB68C3F30223C3F158
:1007BC000704042C28BF04241D1D062D18D9033B47
:1007CC004FF0FF3505FA04F421EA0401994005FACB
:1007DC0003F322EA0303194300280BDB0901C9B216
:1007EC0000F1604000F5614080F8001330BC7047A8
:1007FC000023E5E700F00F000901C9B2024B1954C0
:10080C00F4E700BF00ED00E014ED00E000F01F0283
:10081C00400901239340024A42F82030704700BF40
:10082C0000E100E00138B0F1807F0AD2064B58603D
:10083C00064AF02182F823100020986007221A60E3
:10084C0070470120704700BF10E000E000ED00E0B1
:10085C00F0B482B000263546A1E0002C59D0012C12
:10086C0000D1CE68FF2B68D88446FF2B68D8AC002B
:10087C00DCF800200F27A74022EA070206FA04F44E
:10088C002243CCF800204A6812F0805F00F086808A
:10089C005E4A946944F001049461926902F0010289
:1008AC000192019AAC08A71C594A52F8272005F06E
:1008BC000307BF004FF00F0C0CFA07FC22EA0C0CDC
:1008CC00544A904242D002F5806290427FD002F5A9
:1008DC00806290427DD002F58062904234D0042236
:1008EC0035E04D4FBC4214D00BD94C4FBC4210D00C
:1008FC0007F58037BC420CD0A7F58017BC42B1D1AC
:10090C0007E0A7F58017BC4203D007F58037BC423F
:10091C00A8D18C687CB1012C08D042610826A1E7D3
:10092C00CE6808369EE7CE680C369BE70261082637
:10093C0098E7002696E7042694E700F1040C94E768
:10094C00A5F10804A40093E7032200E00022BA40BA
:10095C0042EA0C0202342E4F47F824204A6812F463
:10096C00803F38D02E4C22681A4322604A6812F419
:10097C00003F36D02A4C62681A4362604A6812F40F
:10098C00801F34D0264CA2681A43A2604A6812F425
:10099C00001F32D0224CE2681343E36001350F2D67
:1009AC0031D80122AA400B6813409A42F6D14C6808
:1009BC00122CB8D095D8022CB2D07FF64EAF032CA7
:1009CC00B7D0112C7FF44EAFCE6804364AE7012223
:1009DC00BDE70222BBE7124C226822EA0302226026
:1009EC00C4E70F4C626822EA03026260C6E70C4C53
:1009FC00A26822EA0302A260C8E7094CE26822EA74
:100A0C000303E360CAE702B0F0BC70470010024079
:100A1C0000000140000801400000211000003110CE
:100A2C000004014012B9090401617047016170476B
:100A3C007047000008B5054B5B69034200D108BD47
:100A4C00024B5861FFF7F4FFF9E700BF00040140C7
:100A5C0082B0084B1B68084AA2FB03235B0A00FB0D
:100A6C0003F0019000BF019B5A1E0192002BF9D19B
:100A7C0002B0704708000020D34D621070B582B0F0
:100A8C000446036813F0010F2CD0AB4B5B6803F0EA
:100A9C000C03042B1DD0A84B5B6803F00C03082B34
:100AAC0012D06368B3F5803F41D0002B55D103F1D0
:100ABC00804303F504331A6822F480321A601A68F2
:100ACC0022F480221A6037E09B4B5B6813F4803F62
:100ADC00E7D0994B1B6813F4003F03D06368002BDD
:100AEC0000F0AE81236813F0020F76D0924B5B6856
:100AFC0013F00C0F5FD0904B5B6803F00C03082BCA
:100B0C0054D02369002B00F08A808C4B01221A6090
:100B1C00FFF760FB0546884B1B6813F0020F75D17D
:100B2C00FFF758FB401B0228F5D903208BE1824AC2
:100B3C00136843F480331360636843B3FFF74AFBD5
:100B4C0005467D4B1B6813F4003FCBD1FFF742FBEE
:100B5C00401B6428F5D9032075E1B3F5A02F09D00B
:100B6C00754B1A6822F480321A601A6822F48022BB
:100B7C001A60E1E703F18043A3F53C331A6842F4B1
:100B8C0080221A601A6842F480321A60D4E7FFF7A8
:100B9C0021FB0546684B1B6813F4003FA2D0FFF7FE
:100BAC0019FB401B6428F5D903204CE1624B5B68B0
:100BBC0013F4803FA5D1604B1B6813F0020F04D0D7
:100BCC002369012B01D001203DE15B4A136823F01E
:100BDC00F803616943EAC1031360236813F0080F3B
:100BEC0032D0A369002B5BD0554B01221A60FFF762
:100BFC00F1FA0546504B5B6A13F0020F21D1FFF757
:100C0C00E9FA401B0228F5D903201CE14A4A136873
:100C1C0023F0F803616943EAC1031360DDE7474B36
:100C2C0000221A60FFF7D6FA0546434B1B6813F0F7
:100C3C00020FD2D0FFF7CEFA401B0228F5D90320C1
:100C4C0001E10120FFF704FF236813F0040F00F00B
:100C5C009780394BDB6913F0805F33D1364BDA69FF
:100C6C0042F08052DA61DB6903F080530193019BFF
:100C7C000125344B1B6813F4807F25D0E368012BCE
:100C8C0036D0002B4CD103F1804303F504331A6AA0
:100C9C0022F001021A621A6A22F004021A622CE093
:100CAC00274B00221A60FFF795FA0546224B5B6A28
:100CBC0013F0020FC8D0FFF78DFA401B0228F5D9AC
:100CCC000320C0E00025D4E71E4A136843F4807368
:100CDC001360FFF77FFA06461A4B1B6813F4807FEC
:100CEC00CCD1FFF777FA801B6428F5D90320AAE052
:100CFC00114A136A43F001031362E36873B3FFF7FD
:100D0C0069FA06460C4B1B6A13F0020F37D1FFF73A
:100D1C0061FA801B41F288339842F3D9032092E0A8
:100D2C00052B11D0044B1A6A22F001021A621A6ABE
:100D3C0022F004021A62E0E7001002400000424276
:100D4C008004424200700040414B1A6A42F0040297
:100D5C001A621A6A42F001021A62CEE7FFF73AFAF7
:100D6C0006463B4B1B6A13F0020F08D0FFF732FA12
:100D7C00801B41F288339842F3D9032063E0E5B934
:100D8C00E369002B5ED0324A526802F00C02082A4A
:100D9C005BD0022B17D02F4B00221A60FFF71AFAE8
:100DAC0004462B4B1B6813F0007F47D0FFF712FA59
:100DBC00001B0228F5D9032045E0254AD36923F00E
:100DCC008053D361DCE7234B00221A60FFF702FA51
:100DDC0005461F4B1B6813F0007F06D0FFF7FAF98E
:100DEC00401B0228F5D903202DE0236AB3F5803F80
:100DFC001AD017494B6823F47413226A606A0243B1
:100E0C0013434B60134B01221A60FFF7E3F90446BE
:100E1C000F4B1B6813F0007F0ED1FFF7DBF9001BA3
:100E2C000228F5D903200EE0094A536823F4003355
:100E3C00A1680B435360DCE7002004E0002002E0D3
:100E4C00012000E0002002B070BD0120FBE700BFD4
:100E5C00001002406000424210B487B0164C94E877
:100E6C000F000DF1180C0CE90F00238AADF80430BB
:100E7C00124B5B6803F00C02082A1AD1C3F38342AD
:100E8C00624412F8102C13F4803F05D10C4800FB7F
:100E9C0002F007B010BC7047084B5B68C3F34043CB
:100EAC00634413F8143C074800FB02F0B0FBF3F06A
:100EBC00EFE70448EDE700BFB8220008001002403D
:100ECC0000093D0000127A00624B1B6803F0070317
:100EDC008B420CD25F4A136823F007030B43136059
:100EEC00136803F007038B4201D00120704770B5E3
:100EFC00036813F0020F17D013F0040F04D0564AF6
:100F0C00536843F4E0635360036813F0080F04D094
:100F1C00514A536843F4605353604F4A536823F06B
:100F2C00F0038468234353600D460446036813F0B2
:100F3C00010F52D04368012B23D0022B28D0464AF4
:100F4C00126812F0020F00F0828043494A6822F0C6
:100F5C00030213434B60FFF73DF906466368012B10
:100F6C001DD0022B2AD03C4B5B6813F00C0F34D0F5
:100F7C00FFF730F9801B41F288339842F3D90320F4
:100F8C0064E0354A126812F4003FDED101205DE0C6
:100F9C00314A126812F0007FD7D1012056E02E4B57
:100FAC005B6803F00C03042B17D0FFF713F9801BBD
:100FBC0041F288339842F2D9032047E0264B5B6814
:100FCC0003F00C03082B08D0FFF704F9801B41F247
:100FDC0088339842F2D9032038E01E4B1B6803F08B
:100FEC000703AB420CD91B4A136823F007032B43AE
:100FFC001360136803F00703AB4201D0012025E016
:10100C00236813F0040F06D0134A536823F4E063EB
:10101C00E1680B435360236813F0080F07D00E4AA6
:10102C00536823F46053216943EAC1035360FFF70B
:10103C0013FF094B5B68C3F30313084AD35CD84016
:10104C00074B18600020FFF783F8002070BD0120CB
:10105C00FCE700BF0020024000100240E022000824
:10106C0008000020014B1868704700BF08000020E2
:10107C0008B5FFF7F7FF044B5B68C3F30223034A81
:10108C00D35CD84008BD00BF00100240F02200081D
:10109C0008B5FFF7E7FF044B5B68C3F3C223034AB1
:1010AC00D35CD84008BD00BF00100240F0220008FD
:1010BC0070B582B00446036813F0010F34D03E4B78
:1010CC00DB6913F0805F48D13B4BDA6942F0805208
:1010DC00DA61DB6903F080530193019B0125374BE7
:1010EC001B6813F4807F3AD0334B1B6A13F44073A4
:1010FC0011D0626802F440729A420CD02E4A136AE4
:10110C0023F440702E4901260E6000260E601062FA
:10111C0013F0010F37D1284A136A23F44073616826
:10112C000B431362002D3FD1236813F0020F06D03E
:10113C00214A536823F44043A1680B43536023684E
:10114C0013F0100F35D01C4A536823F48003E16868
:10115C000B435360002002B070BD0025BFE7174A57
:10116C00136843F480731360FFF734F80646134B8F
:10117C001B6813F4807FB7D1FFF72CF8801B642811
:10118C00F5D90320E7E7FFF725F806460A4B1B6A5B
:10119C0013F0020FBFD1FFF71DF8801B41F288330B
:1011AC009842F3D90320D6E7D36923F08053D36157
:1011BC00BAE70020CFE700BF0010024000700040EB
:1011CC004004424230B587B00546384C94E80F00D5
:1011DC000DF1180C0CE90F00238AADF80430022D28
:1011EC0050D0102D03D0012D2BD0002054E0304BCB
:1011FC005A681B6813F0807F50D0C2F3834306A952
:10120C000B4413F8100C12F4803F16D0284B5B687B
:10121C00C3F340430B4413F8142C264BB3FBF2F3EB
:10122C0000FB03F0224B5B6813F4800F34D14000B9
:10123C00214BA3FB003040082EE0204B03FB00F0B9
:10124C00F0E71B4B1B6A40F202321A40B2F5817F69
:10125C0026D003F44073B3F5007F04D0B3F5407F80
:10126C0009D0002018E0124A526A12F0020FF5D091
:10127C0049F6404010E00E4B1B6813F4003F12D1AE
:10128C00002009E0FFF704FF094B5B68C3F38133CF
:10129C0001335B00B0FBF3F007B030BD0020FBE77F
:1012AC004FF40040F8E74FF22440F5E7CC22000859
:1012BC000010024000127A00ABAAAAAA00093D0055
:1012CC002DE9F84305460268136923F44053C168BD
:1012DC000B4313618368026913434269134301682A
:1012EC00CA6822F4B05222F00C021343CB6002689D
:1012FC00536923F4407381690B4353610268594B62
:10130C009A4257D0FFF7B4FE00EB800000EB800050
:10131C006C68A400B0FBF4F4534FA7FB04346409CD
:10132C002601FFF7A5FE00EB800000EB80006C6847
:10133C00A400B0FBF4F9FFF79BFE00EB800000EB80
:10134C0080006C68A400B0FBF4F4A7FB04346409BF
:10135C004FF0640808FB149424013234A7FB0434C6
:10136C00640904F0F0043444FFF782FE00EB8000C3
:10137C0000EB80006E68B600B0FBF6F6FFF778FE67
:10138C0000EB800000EB80006B689B00B0FBF3F07F
:10139C00A7FB0030400908FB10684FEA081808F159
:1013AC003208A7FB0837C7F343172B6827449F6005
:1013BC00BDE8F883FFF76CFE00EB800000EB8000CB
:1013CC006C68A400B0FBF4F4274FA7FB0434640949
:1013DC002601FFF75DFE00EB800000EB80006C68DF
:1013EC00A400B0FBF4F9FFF753FE00EB800000EB18
:1013FC0080006C68A400B0FBF4F4A7FB043464090F
:10140C004FF0640808FB149424013234A7FB043415
:10141C00640904F0F0043444FFF73AFE00EB80005A
:10142C0000EB80006E68B600B0FBF6F6FFF730FEFE
:10143C0000EB800000EB80006B689B00B0FBF3F0CE
:10144C00A7FB0030400908FB10684FEA081808F1A8
:10145C003208A7FB0837C7F343172B6827449F6054
:10146C00A6E700BF003801401F85EB512DE9F04184
:10147C0005460F4616469846069C2B681B6837EAAD
:10148C0003030CBF01230023B3421DD1B4F1FF3F72
:10149C00F3D02CB1FEF79EFEA0EB0800A042ECD9D5
:1014AC002A68D36823F4D073D3602A68536923F075
:1014BC0001035361202385F8393085F83A30002335
:1014CC0085F83830032000E00020BDE8F08158B3E7
:1014DC0010B5044690F839300BB3242384F8393016
:1014EC002268D36823F40053D3602046FFF7E8FE4C
:1014FC002268136923F4904313612268536923F023
:10150C002A0353612268D36843F40053D36000204C
:10151C00E063202384F8393084F83A3010BD80F829
:10152C00383000F0C7F9D8E7012070472DE9F041B9
:10153C0082B01E4690F83930DBB2202B55D10446D0
:10154C000D469046002955D0002A55D090F83830D9
:10155C00012B53D0012380F838300023C36321239F
:10156C0080F83930FEF736FE0746A4F82480A4F83C
:10157C00268010E000963B46002280212046FFF793
:10158C0075FF00283CD12B882268C3F308035360F5
:10159C002369C3B90235E38C9BB2B3B1E38C013B35
:1015AC009BB2E384A368B3F5805FE3D000963B461F
:1015BC00002280212046FFF759FF18BB2A782368A8
:1015CC005A600135E7E70135E5E700963B46002216
:1015DC0040212046FFF74AFF0346A8B9202284F891
:1015EC003920002284F8382000E00223184602B08B
:1015FC00BDE8F0810123F9E70123F7E70223F5E7C2
:10160C000323F3E70323F1E70323EFE730B589B0B6
:10161C0000240494059406940794254B9A6942F08F
:10162C0010029A619A6902F010020092009A9A696B
:10163C0042F020029A619A6902F020020192019A0A
:10164C009A6942F004029A619A6902F004020292C9
:10165C00029A9A6942F008029A619B6903F00803A6
:10166C000393039B134D224620212846FFF7DAF9FA
:10167C004FF400530493104B0593069404A90F48A0
:10168C00FFF7E6F820230493012305930694022325
:10169C00079304A92846FFF7DBF8224621462820A9
:1016AC00FFF780F82820FFF7B1F809B030BD00BF74
:1016BC000010024000080140000011100010014011
:1016CC0070B584B000250195029503950B4C0C4B1D
:1016DC002360A560E56065614FF46023E36165609C
:1016EC00012626612046FEF7C3FF0195029603955D
:1016FC0001A92046FEF744FE04B070BDA0000020F6
:10170C000024014008B50848084B03604FF4E1334E
:10171C00436000238360C36003610C2242618361D8
:10172C00C361FFF7D4FE08BDD00000200044004088
:10173C0030B595B0242200210BA800F091F90024BB
:10174C0005940694079408940994019402940394C4
:10175C00049402250A9501230E9310230F931195DF
:10176C000AA8FFF78BF90F230593069507944FF4FE
:10177C00806308930994214605A8FFF7A5FB019502
:10178C00039401A8FFF794FC15B030BD30B585B0BB
:10179C00FEF702FDFFF7CCFFFFF738FFFFF790FFD6
:1017AC00FFF7B0FF164D01224FF480612846FFF77A
:1017BC0039F9144C2046FEF7BFFE4FF0FF3120469E
:1017CC00FEF722FD2046FEF7D7FD044600224FF41B
:1017DC0080612846FFF726F9A2B20B4901A800F058
:1017EC0047F901A8FEF7ACFC4FF0FF3382B201A918
:1017FC000648FFF79BFE0A20FEF7F2FCD2E700BF7B
:10180C0000080140A0000020F8220008D0000020B1
:10181C0082B00E4B9A6942F001029A619A6902F009
:10182C0001020092009ADA6942F08052DA61DB69B7
:10183C0003F080530193019B054A536823F0E06346
:10184C0043F00073536002B0704700BF00100240B9
:10185C000000014000B587B000230293039304936A
:10186C0005930268114B9A4202D007B05DF804FB55
:10187C0003F56C439A6942F400729A619A6902F416
:10188C0000720092009A9A6942F004029A619B6974
:10189C0003F004030193019B01230293032303939D
:1018AC0002A90348FEF7D4FFDFE700BF0024014084
:1018BC000008014000B587B0002302930393049302
:1018CC0005930268114B9A4202D007B05DF804FBF5
:1018DC0003F5E633DA6942F40032DA61DA6902F4CC
:1018EC0000320092009A9A6942F004029A619B6954
:1018FC0003F004030193019B0C2302930223039333
:10190C00059302A90248FEF7A3FFDEE7004400405E
:10191C00000801407047FEE7FEE7FEE7FEE7704770
:10192C007047704708B5FEF749FC08BD08B54FF481
:10193C000050FFF77FF808BD08B503460B4A126844
:10194C0042B10A4A106803446A46934206D8074AD1
:10195C00136008BD054A06491160F2E700F056F81D
:10196C000C2303604FF0FF30F3E700BF8C00002026
:10197C00180100200F4B1A6842F001021A605968D6
:10198C000D4A0A405A601A6822F0847222F480329E
:10199C001A601A6822F480221A605A6822F4FE0235
:1019AC005A604FF41F029A60044B4FF000629A6029
:1019BC00704700BF001002400000FFF800ED00E08F
:1019CC00002103E00B4B5B58435004310A480B4B8E
:1019DC0042189A42F6D30A4A02E0002342F8043B2A
:1019EC00084B9A42F9D3FFF7C5FF00F015F8FFF743
:1019FC00CDFE70473C230008000000207000002042
:101A0C007000002014010020FEE70000014B186854
:101A1C00704700BF0C00002070B500250C4E0D4C1B
:101A2C00A41BA410A54209D100F034FC00250A4ED9
:101A3C000A4CA41BA410A54205D170BD56F8253044
:101A4C0098470135EEE756F8253098470135F2E70F
:101A5C0034230008342300083423000838230008FA
:101A6C0003460244934200D1704703F8011BF9E787
:101A7C000EB46FF0004100B59CB01DAB0290069007
:101A8C00079104910848094953F8042B0591006803
:101A9C0002A9019300F066F80022029B1A701CB098
:101AAC005DF804EB03B070470C0000200802FFFF48
:101ABC002DE9F0478E6882469E420C469046994628
:101ACC0037D88A8912F4906F31D0022325680969BE
:101ADC006F1A656905EB450595FBF3F509F10103F3
:101AEC003B449D4238BF1D46530530D5294600F076
:101AFC0037FB064650B90C234FF0FF30CAF80030C4
:101B0C00A38943F04003A381BDE8F0873A462169DD
:101B1C0000F0B6FAA38923F4906343F08003A38109
:101B2C0026613E4426604E466561ED1BA5604E4520
:101B3C0000D94E4632464146206800F0ACFAA36804
:101B4C0000209B1BA36023681E442660DCE72A460A
:101B5C0000F060FB06460028E2D12169504600F0F7
:101B6C00B3FAC8E72DE9F04F1D468B899DB01F06CF
:101B7C0080460C4616460FD50B696BB9402100F018
:101B8C00EFFA2060206128B90C23C8F800304FF020
:101B9C00FF30C8E0402363610023099320238DF8B4
:101BAC00293030234FF0010B8DF82A30039537463E
:101BBC003D4615F8013B0BB1252B3ED1B7EB060A80
:101BCC000BD05346324621464046FFF771FF013099
:101BDC0000F0A480099B534409933B78002B00F040
:101BEC009D8000234FF0FF32CDE90523049307932A
:101BFC008DF853301A932F46052217F8011B5048C5
:101C0C0000F030FA049BD0B9D90644BF20228DF8DD
:101C1C0053201A0744BF2B228DF853202A782A2AE6
:101C2C0015D02F4600200A25079A394611F8013B9A
:101C3C00303B092B4DD9B8B10FE02F46B8E7404ADD
:101C4C003D46801A0BFA00F018430490D3E7039A30
:101C5C00111D12680391002A01DB079204E0524225
:101C6C0043F00203079204933B782E2B0CD17B7824
:101C7C002A2B33D1039B02371A1D1B680392002BAE
:101C8C00B8BF4FF0FF3305932E4D03223978284609
:101C9C0000F0E8F938B14023401B03FA00F0049B34
:101CAC000137034304933978062227487E1C8DF8AC
:101CBC00281000F0D7F9002838D0244B13BB039B15
:101CCC00073323F0070308330393099B4B44099311
:101CDC006DE705FB023201200F46A6E700230A251B
:101CEC00194601370593384610F8012B303A092A6A
:101CFC0003D9002BC8D00591C6E705FB01210123B0
:101D0C000746F0E703AB00932246114B04A940466B
:101D1C00AFF30080B0F1FF3F8146D6D1A3895B06BB
:101D2C003FF535AF09981DB0BDE8F08F03AB0093BC
:101D3C002246074B04A9404600F082F8EAE700BFB0
:101D4C0000230008062300080A23000800000000F6
:101D5C00BD1A00082DE9F04791461F468A680B69A9
:101D6C0006469342B8BF1346C9F8003091F8432099
:101D7C000C46DDF8208012B10133C9F8003023681D
:101D8C00990642BFD9F800300233C9F800302568F3
:101D9C0015F0060507D104F1190AE368D9F80020FB
:101DAC009B1AAB4229DC94F843302268003318BFED
:101DBC00012392062ED404F1430239463046C04723
:101DCC00013021D02368E56803F00603042B18BF0B
:101DDC000025D9F800204FF0000908BFAD1AA36800
:101DEC00226908BF25EAE5759342C4BF9B1AED181A
:101DFC001A344D451AD1002008E0012352463946C9
:101E0C003046C047013003D14FF0FF30BDE8F087BA
:101E1C000135C2E73020E11881F843005A1C94F8D0
:101E2C0045102244023382F84310C4E701232246B2
:101E3C0039463046C0470130E6D009F10109D8E7F0
:101E4C002DE9F04301F1430C0C46097E85B06E2957
:101E5C001746064698460C9A00F0B38022D86329A0
:101E6C0036D00AD8002900F0B980582900F08380B8
:101E7C0004F1420584F8421032E0642901D069294A
:101E8C00F6D120681368050603F104012AD51B68F6
:101E9C001160002B03DA2D225B4284F843206F483B
:101EAC000A2239E0732900F09D8008D86F2920D0D0
:101EBC007029DDD1236843F02003236003E07529EA
:101ECC0017D07829D4D17823654884F8453055E06B
:101EDC00136804F14205191D1B68116084F8423027
:101EEC0001238CE01B6810F0400F116018BF1BB26F
:101EFC00CFE713682568181D1060280601D51B68EC
:101F0C0002E06806FBD51B886F2914BF0A22082241
:101F1C005248002184F843106568002DA560C0F27A
:101F2C009580216821F004012160002B3DD1002D0A
:101F3C0040F08E806546082A0BD12368DB0708D554
:101F4C00236962689A42DEBF302305F8013C05F133
:101F5C00FF35ACEB05032361CDF800803B4603AAAB
:101F6C0021463046FFF7F6FE01304DD14FF0FF30E1
:101F7C0005B0BDE8F083394884F845101368216832
:101F8C001D1D1B6815600A060BD5CA0744BF41F01E
:101F9C00200121601BB9226822F02002226010224D
:101FAC00B7E74D0648BF9BB2EFE76546B3FBF2F1CE
:101FBC0002FB1133C35C05F8013D0B460029F5D13A
:101FCC00B9E713682568181D6169106028061B683D
:101FDC0001D5196002E06A06FBD51980002365461D
:101FEC002361B9E71368191D11601D68626800212F
:101FFC00284600F037F808B1401B60606368236125
:10200C00002384F84330A7E723692A463946304633
:10201C00C0470130AAD023689B0713D4E068039B08
:10202C009842B8BF1846A3E701234A4639463046C2
:10203C00C04701309AD00135E368039A9B1AAB4232
:10204C00F2DCEBE7002504F11909F5E7002BACD124
:10205C00037804F1420584F842306CE71123000840
:10206C002223000810B5C9B202449042034601D1A4
:10207C00002303E01C7801308C42F6D1184610BDC9
:10208C0010B5431E0A44914200D110BD11F8014B0A
:10209C0003F8014FF7E7884210B501EB020307D8AC
:1020AC00421E99420AD011F8014B02F8014FF8E791
:1020BC008342F5D98118D21AD34200D110BD13F83E
:1020CC00014D01F8014DF7E738B50546002943D01D
:1020DC0051F8043C0C1F002BB8BFE41800F0D0F8EA
:1020EC001E4A1368104633B9636014602846BDE875
:1020FC00384000F0C6B8A3420BD92168621893424D
:10210C0001BF1A685B685218226063600460EDE7D7
:10211C0013465A680AB1A242FAD919685818A04253
:10212C000BD120680144581882421960DED1106826
:10213C005268014419605A60D8E702D90C232B600D
:10214C00D4E7206821188A4201BF11685268091827
:10215C00216062605C60C9E738BD00BF940000205C
:10216C0070B5CD1C25F0030508350C2D38BF0C259A
:10217C00002D064601DBA94203D90C233360002055
:10218C0070BD00F07DF8214A1468214691B9204CAD
:10219C0023681BB9304600F063F8206029463046AE
:1021AC0000F05EF8431C24D10C233046336000F061
:1021BC0068F8E4E70B685B1B18D40B2B0FD90B608A
:1021CC00CC18CD50304600F05CF804F10B00231D08
:1021DC0020F00700C31AD3D05A42E250D0E74B6824
:1021EC008C4216BF636013600C46EBE70C464968E3
:1021FC00CCE7C41C24F00304A04205D0211A3046BD
:10220C0000F02EF80130CFD02560DBE794000020E1
:10221C0098000020F8B5074614460E4621B9BDE8D3
:10222C00F8401146FFF79CBF22B9FFF74DFF25463A
:10223C002846F8BD00F026F8A0420FD221463846B9
:10224C00FFF78EFF05460028F2D031462246FFF7F5
:10225C0017FF31463846FFF737FFE9E73546E7E722
:10226C0038B50023054C054608462360FFF764FB90
:10227C00431C02D1236803B12B6038BD1001002030
:10228C007047704751F8043C181F002BBCBF0B580B
:10229C00C0187047F8B500BFF8BC08BC9E46704724
:0C22AC00F8B500BFF8BC08BC9E467047A7
:1022B80002030405060708090A0B0C0D0E0F10107F
:1022C8000102000002030405060708090A0B0C0DA9
:1022D8000E0F1010010200000000000000000000B6
:1022E80001020304060708090000000001020304B4
:1022F8002568750D0A000000232D302B2000686C1E
:102308004C00656667454647003031323334353610
:102318003738394142434445460030313233343549
:0C23280036373839616263646566000076
:04233400310100086B
:042338000D0100088B
:10233C00010000001000000000A24A041000002060
:10234C000000000000000000000000000000000081
:10235C000000000000000000000000000000000071
:10236C000000000000000000000000000000000061
:10237C000000000000000000000000000000000051
:10238C000000000000000000000000000000000041
:10239C000000000000000000000000000000000031
:04000005080019CD09
:00000001FF
